:04000000FEEFFFF020
:0D3700000000010203040506070850010047
:10370E000A6E0AAE8DEF1BF08FEF1BF09FEF1BF0D2
:10371E00C088000000000000C0880000000000000B
:10372E000000C0980000000000000000ADEF1BF08C
:10373E00C088000000000000C098000000000000DB
:10374E000000C09800000000000000000AACB2EFBC
:10375E001BF0B4EF1BF0C4EF1BF0C088000000009C
:10376E000000C0880000000000000000C0980000AB
:10377E00000000000000D2EF1BF0C0880000000027
:10378E000000C0980000000000000000C09800007B
:10379E000000000000000AAAD7EF1BF0D9EF1BF0C3
:1037AE00E9EF1BF0C088000000000000C088000098
:1037BE00000000000000C0980000000000000000A3
:1037CE00F7EF1BF0C088000000000000C09800005A
:1037DE00000000000000C098000000000000000083
:1037EE000AA8FCEF1BF0FEEF1BF00EEF1CF0C088DA
:1037FE00000000000000C088000000000000000073
:10380E00C09800000000000000001CEF1CF0C088F3
:10381E00000000000000C098000000000000000042
:10382E00C09800000000000000000AA621EF1CF066
:10383E0023EF1CF033EF1CF0C088000000000000E6
:10384E00C0880000000000000000C09800000000CA
:10385E000000000041EF1CF0C088000000000000D6
:10386E00C0980000000000000000C098000000009A
:10387E00000000000AA446EF1CF048EF1CF058EFC1
:10388E001CF0C088000000000000C088000000008E
:10389E0000000000C098000000000000000066EF6D
:1038AE001CF0C088000000000000C098000000005E
:1038BE0000000000C09800000000000000000AA2F6
:1038CE006BEF1CF06DEF1CF07DEF1CF0C08800005C
:1038DE0000000000C0880000000000000000C0983A
:1038EE0000000000000000008BEF1CF0C0880000FC
:1038FE0000000000C0980000000000000000C0980A
:10390E0000000000000000000AA090EF1CF092EFF3
:10391E001CF0A2EF1CF0C088000000000000C08860
:10392E000000000000000000C09800000000000031
:10393E000000B0EF1CF0C088000000000000C0982E
:10394E000000000000000000C09800000000000011
:10395E0000001200000E0301F96F000EFA6F000E48
:10396E00D86F000EFB6F000ED96F000EDA6F000ECF
:10397E00DB6F000EDC6F000EDF6F000EE06F000ECF
:10398E00E36F000EE46F000EE56F000EE66F000EA3
:10399E00E76F000EEA6F000EEB6F000EEC6F000E7D
:1039AE00EE6F000EEF6F000EF06F000EF16F000E57
:1039BE00F26F000EF36F000EF46F100EF56F000E27
:1039CE00F66F000EF76F000EF86F000EFC6FAF94DF
:1039DE00AF96B090000E0A6E000E0B6E000E0C6EBF
:1039EE0057EC1EF0000E0A6E000E0B6E000E0C6EE3
:1039FE0049EC1EF0000E0A6E000E0B6E000E0C6EE1
:103A0E0050EC1EF0840E0301F36F12001CEC1EF03E
:103A1E00000E0B6E000E0C6EFF0E35EC1EF03D0E02
:103A2E000F6EE10E0E6E400EE82EFED70E2EFCD758
:103A3E000F2EFAD7FF0E0B6E000E0C6E000E35EC2D
:103A4E001EF03D0E0F6EE10E0E6E400EE82EFED7EE
:103A5E000E2EFCD70F2EFAD7000E0B6EFF0E0C6E2D
:103A6E00000E35EC1EF03D0E0F6EE10E0E6E400E8A
:103A7E00E82EFED70E2EFCD70F2EFAD7000E0B6EA9
:103A8E00000E0C6E000E35EC1EF03D0E0F6EE10EAC
:103A9E000E6E400EE82EFED70E2EFCD70F2EFAD746
:103AAE000FEF1DF0FEEFFFF00C6E000E0B6E5EECD6
:103ABE001EF00A6E040E0A18D8B468EF1DF06AEFF5
:103ACE001DF07BEF1DF00C04D8B470EF1DF072EFFB
:103ADE001DF07BEF1DF0040E0C18D8A479EF1DF02D
:103AEE007BEF1DF09BEF1DF0010103510C18F80B3D
:103AFE000C18036F8EEF1DF01DA988EF1DF08AEFD5
:103B0E001DF08EEF1DF0020E0B6E9DEF1DF00239B3
:103B1E00E832070B0C18D8A497EF1DF099EF1DF0A3
:103B2E0083EF1DF09DEF1DF0010E0B6E0B5012007A
:103B3E00000EBE6E000EBF6E000EC06E080ECA6E78
:103B4E00FC0EC66EDD0EC76EEF0EC86EEF0E0401D4
:103B5E00106FEE0E086F400E006F000E216F000EFC
:103B6E00096F000E016F000E116F000E026F000E36
:103B7E000A6F000E126F03690B69136904690C69F1
:103B8E001469080E246F460E02010E6F0C0E3D6F67
:103B9E00080E5A6F12000101018F040E5BEC1DF02E
:103BAE000009D8A4DDEF1DF0DFEF1DF0F3EF1DF0DF
:103BBE00000E01014C6F380E4D6F000E4E6F000E51
:103BCE004F6F600E006F970E016F000E026F40EC8C
:103BDE001EF0060E5BEC1DF01200800E03010C6F42
:103BEE00000E0D6F000E0E6F000E0F6F000E116F98
:103BFE00000E106F000E0B6F000E0A6F000E096F95
:103C0E001200000E0001606F000E616F000E626FF9
:103C1E00000E636F000E646F000E656F000E666F10
:103C2E00000E676F000E686F120008EC1EF09FEC1E
:103C3E001DF0B1EC1CF029EC1EF0F4EC1DF0D2ECF2
:103C4E001DF01200600E0001AD6F000EAF6F000E82
:103C5E00B36F070EB16F000EB06F12000D6E0B50EA
:103C6E0087EC1BF00D5087EC1BF00C5087EC1BF013
:103C7E0012007E0E0101046F7E0E056F0669000EA6
:103C8E00076F12000AC504F50BC505F50CC506F540
:103C9E0012000AC501F50BC502F50CC503F512009D
:103CAE000AC507F50BC508F50CC509F5120001018B
:0E3CBE000239E832070B120000010DEF1DF075
:020000040001F9
:04FFFC0063EF1EF0A1
:020000040030CA
:10000000ECEFF7FF9FFFFFFFFFFFFFFFFFFFFFFF8B
:03001000FFFFFFF0
:08001700FFFFFFFFFFFFFFFFE9
:00000001FF
